:020000040800F2
:10000000001000205D00000800000000000000005B
:1000100000000000000000000000000000000000E0
:100020000000000000000000000000007B0000084D
:1000300000000000000000000000000000000000C0
:1000400000000000000000000000000000000000B0
:10005000000000000000000000000000174981F3CC
:1000600009884FF0030080F31488154F57F8041BDC
:100070003A68DFF850802ADFFEE70FB51EF0040F64
:1000800014BFEFF30980EFF30880816911F8021CB7
:100090002A2907D10B4A0A4C2568666805EB060336
:1000A000136006E0074A064C25686668A5EB060360
:1000B00013600FBD060600000606000000020020C7
:1000C000B400000800000020000000000000000054
:1000D0000000000000000000000000000000000020
:040000050800005D92
:00000001FF
